:030000000208747F
:0C087400787FE4F6D8FD758108020800CA
:10085400E4FDFCC3ED9FEC9E5015E4FBFA0BBB00DA
:0F086400010AEB64784A70F50DBD00010C80E4C9
:010873002262
:060800007590FFE4F5A075
:10080600E590F4540FF508E4F5A0E5081460142407
:10081600FE601624FC601A24F8601E240F7024D291
:10082600A48022D2A0D2A4801CD2A0D2A1C2A4802D
:1008360014D2A0D2A1D2A2800CD2A0D2A1D2A2D28E
:0C084600A38002D2A47F327E001208546E
:0208520080B272
:00000001FF
